:020000040800F2
:1000000000000320AD120008B5110008BB11000864
:10001000C1110008C7110008CD1100080000000040
:10002000000000000000000000000000D3110008E4
:10003000E111000800000000EF110008FD110008A8
:10004000FD120008FD120008FD120008FD12000854
:10005000FD120008FD120008FD120008FD12000844
:10006000FD120008FD120008FD120008FD12000834
:10007000FD120008FD120008FD120008FD12000824
:10008000FD120008FD120008FD120008FD12000814
:10009000FD120008FD120008FD120008FD12000804
:1000A000FD120008FD120008FD120008FD120008F4
:1000B000FD120008FD120008FD120008FD120008E4
:1000C000FD120008FD120008FD120008FD120008D4
:1000D000FD120008FD120008FD12000809120008B8
:1000E000FD120008FD120008FD120008FD120008B4
:1000F000FD120008FD120008FD120008FD120008A4
:10010000FD120008FD120008FD120008FD12000893
:10011000FD120008FD120008FD120008FD12000883
:10012000FD120008FD120008FD120008FD12000873
:10013000FD120008FD120008FD120008FD12000863
:10014000FD120008FD120008FD120008FD12000853
:10015000FD120008FD120008FD120008FD12000843
:10016000FD120008FD120008FD120008FD12000833
:10017000FD120008FD120008FD120008000000003A
:10018000FD120008FD120008FD120008FD12000813
:10019000FD120008FD120008FD120008FD12000803
:0C01A000FD120008FD120008FD1200080E
:1001B00010B5054C237833B9044B13B10448AFF3A1
:1001C00000800123237010BD5C00002000000000AF
:1001D0000855000808B5034B1BB103490348AFF3AA
:1001E000008008BD000000006000002008550008E5
:1001F00001F0FF01102A2BDB10F0070F08D010F8D8
:10020000013B013A8B422DD010F0070F42B3F6D1DB
:10021000F0B441EA012141EA014122F007047FF0F4
:1002200000070023F0E80256083C85EA010586EA4B
:10023000010685FA47F5A3FA87F586FA47F6A5FA87
:1002400087F68EB9EED1F0BC01F0FF0102F0070293
:1002500032B110F8013B013A83EA010313B1F8D13E
:100260000020704701387047002D06BF354603381F
:10027000073815F0010F07D1013015F4807F02BF58
:10028000013015F4C03F0130F0BC0138704700BFA9
:1002900053B94AB9002908BF00281CBF4FF0FF31ED
:1002A0004FF0FF3000F070B9ADF1080C6DE904CEED
:1002B00000F006F8DDF804E0DDE9022304B0704741
:1002C0002DE9F047089E0D4604460F46002B4AD103
:1002D0008A42944665D9B2FA82F343B102FA03FC2A
:1002E000C3F120029F4020FA02F217439C404FEADC
:1002F0001C4E1FFA8CF5B7FBFEF1220C0EFB11779A
:1003000042EA074201FB05F090420AD91CEB0202C7
:1003100001F1FF3780F01C81904240F219810239CF
:100320006244121AA4B2B2FBFEF00EFB102244EAA1
:10033000024400FB05F5A5420AD91CEB040400F1B8
:10034000FF3280F00781A54240F204816444023804
:1003500040EA0140641B00211EB1DC400023C6E9D5
:100360000043BDE8F0878B4208D9002E00F0ED80F5
:100370000021C6E900050846BDE8F087B3FA83F11D
:10038000002949D1AB4202D3824200F2F880841A9C
:1003900065EB030201201746002EE2D0C6E90047B4
:1003A000DFE702B9FFDEB2FA82F3002B40F0908063
:1003B0008A1A4FEA1C471FFA8CFE0121B2FBF7F59F
:1003C00007FB1520220C42EA00420EFB05F090428A
:1003D00008D91CEB020205F1FF3802D2904200F26C
:1003E000CB804546121AA4B2B2FBF7F007FB1022ED
:1003F00044EA02440EFB00FEA64508D91CEB0404A7
:1004000000F1FF3202D2A64500F2BB801046A4EBF9
:100410000E0440EA05409FE7C1F120078B4022FA15
:1004200007FC4CEA030C05FA01F420FA07F3FD403F
:100430004FEA1C492343B5FBF9F81FFA8CFE09FB70
:1004400018551C0C44EA054408FB0EF5A54202FAB7
:1004500001F200FA01F00BD91CEB040408F1FF3A99
:1004600080F08880A54240F28580A8F102086444AB
:10047000641B9DB2B4FBF9F309FB134445EA044441
:1004800003FB0EFEA64508D91CEB040403F1FF355F
:100490006CD2A6456AD9023B644443EA0843A3FBF5
:1004A0000295A4EB0E04AC42C846AE4656D353D0D8
:1004B00056B1B0EB080264EB0E0404FA07F7CA4029
:1004C000CC401743C6E9007418460021BDE8F08708
:1004D000C3F1200102FA03FC20FA01F225FA01F12E
:1004E0009D402A434FEA1C471FFA8CFEB1FBF7F0F0
:1004F00007FB1015110C41EA054100FB0EF58D427A
:1005000004FA03F408D91CEB010100F1FF382FD2E3
:100510008D422DD902386144491B92B2B1FBF7F5E7
:1005200007FB151142EA014205FB0EF1914208D981
:100530001CEB020205F1FF3816D2914214D9023D9C
:100540006244521A45EA004138E73146304608E72E
:100550003946E6E61046FBE64845A9D2B9EB020863
:1005600065EB0C0E013BA3E74546EAE72B4694E713
:100570004046D1E7D0467BE7023D624432E7084679
:100580000AE76444023842E7704700BF80B584B090
:1005900000AF78607B681B68FB60FB687A680C4979
:1005A0000C4804F00DFB4FF6FF73282209490A4856
:1005B00003F03FFB03461A46084B1A70074B1B78A3
:1005C000002B00D0FEE700BF1037BD4680BD00BF46
:1005D000205500087803002008030020A003002015
:1005E00080B500AF00F08CFE00F0BAF800F010FA11
:1005F00000F022F900F0E2F900F06CF900F090F957
:1006000001F034FC4B4800F0D1FA03464A4A13602B
:100610004A4800F003FC0246494B1344184600F0D8
:10062000C5FA0246444B1B68D31A0133454A13608E
:10063000454B00221A60444B02221A613E4B1B6854
:10064000414A93603F4B1B683F4AD3603F493E4855
:1006500001F07EFD0346002B06D001224FF48041BD
:100660003B4802F061F8F8E73A4B324A1A601DE065
:10067000384B19684FF099324FF00003022001F017
:10068000A1FB0346002B0AD1324B1B681846FFF72B
:100690007DFF304B1B6804332E4A136006E00122B5
:1006A0004FF480412A4802F03FF8F8E7234800F071
:1006B000B5FB0246224B1344264A12689342D7D810
:1006C00001F0F6FB234B1B4A1A60234B00221A60F1
:1006D00013E0204B1B681B68204A13601F4B1B68EC
:1006E000B3F1993F04D01C4B1B6801331A4A1360C5
:1006F000184B1B680433174A1360104800F08EFB38
:1007000002460F4B1344134A12689342E1D8124B2E
:100710001B68002B05D1012201210D4802F004F8CD
:1007200004E0012280210A4801F0FEFF0023184660
:1007300080BD00BF008000084C03002000C00008FE
:10074000FFBF00085003002064030020580300206E
:100750000004024054030020600300205C030020DA
:1007600080B594B000AF07F1200330220021184675
:1007700004F046FA07F10C0300221A605A609A60EE
:10078000DA601A610023BB60294B1B6C284A43F0D6
:1007900080531364264B1B6C03F08053BB60BB6813
:1007A00000237B60234B1B68224A43F440431360C1
:1007B000204B1B6803F440437B607B6805233B624E
:1007C0004FF4A0237B620123BB620223BB634FF47F
:1007D0008003FB6304233B64A8237B640223BB6484
:1007E0000723FB6407F12003184601F0B7FF034617
:1007F000002B01D000F048FB0F23FB6002233B617C
:1008000000237B614FF4A053BB614FF48053FB6125
:1008100007F10C030521184602F018FA0346002BD5
:1008200001D000F031FB00BF5037BD4680BD00BF96
:10083000003802400070004080B500AF1F4B204AD6
:100840001A60204B00221A701E4B80225A701D4BDA
:10085000E1229A701B4B0022DA701A4B00221A71A7
:10086000184B00225A71154B164A5A60134B4FF41D
:1008700000029A60114B144ADA60104B134A1A6155
:100880000E4B40F2F4525A610C4800F073FF0346DD
:10089000002B01D000F0F8FA382200210C4804F0B7
:1008A000AFF90B4B21221A60094B4FF440025A61F9
:1008B000074B00221A6100BF80BD00BFF00100207D
:1008C00000800240A403002050010020B00000205E
:1008D0007800002080B500AF0F4B104A1A600E4B15
:1008E00000225A600C4B7F229A600B4BFF22DA6089
:1008F000094B00221A61084B00225A61064B002264
:100900009A61054802F082FD0346002B01D000F0F9
:10091000BBFA00BF80BD00BFA0020020002800403D
:1009200080B586B000AF07F1080300221A605A6054
:100930009A60DA603B4600221A605A601E4B4FF004
:1009400080421A601C4B40F2E7325A601A4B002278
:100950009A60194B40F28332DA60174B00221A6119
:10096000154B00229A61144802F04AFE0346002B00
:1009700001D000F089FA4FF48053BB6007F10803FF
:1009800019460D4802F08BFE0346002B01D000F003
:100990007BFA00233B6000237B603B4619460648F8
:1009A00003F07EF80346002B01D000F06DFA00BF83
:1009B0001837BD4680BD00BFC002002080B500AF23
:1009C000114B124A1A60104B4FF4E1325A600E4B31
:1009D00000229A600C4B0022DA600B4B00221A6155
:1009E000094B0C225A61084B00229A61064B0022E7
:1009F000DA61054803F0D0F80346002B01D000F07F
:100A000043FA00BF80BD00BF08030020004800403B
:100A100080B58CB000AF07F11C0300221A605A6049
:100A20009A60DA601A610023BB615B4B1B6B5A4A08
:100A300043F004031363584B1B6B03F00403BB61C7
:100A4000BB6900237B61544B1B6B534A43F080030B
:100A50001363514B1B6B03F080037B617B690023A5
:100A60003B614D4B1B6B4C4A43F0010313634A4BF4
:100A70001B6B03F001033B613B690023FB60464BAA
:100A80001B6B454A43F002031363434B1B6B03F09C
:100A90000203FB60FB680023BB603F4B1B6B3E4ABD
:100AA00043F0080313633C4B1B6B03F00803BB606C
:100AB000BB6800237B60384B1B6B374A43F0400315
:100AC0001363354B1B6B03F040037B607B68002294
:100AD00044F28101314801F027FE002240213048D4
:100AE00001F022FE4FF40053FB614FF488133B6288
:100AF00000237B6207F11C0319462A4801F068FCB9
:100B000044F28103FB6101233B6200237B620023EB
:100B1000BB6207F11C031946204801F059FC402331
:100B2000FB6101233B6200237B620023BB6207F170
:100B30001C0319461A4801F04BFC8023FB6100237B
:100B40003B6200237B6207F11C031946144801F045
:100B50003FFC4FF4E853FB6102233B6200237B62BE
:100B60000323BB620A23FB6207F11C0319460E48EC
:100B700001F02EFC4FF40073FB6100233B62002365
:100B80007B6207F11C031946074801F021FC00BFF6
:100B90003037BD4680BD00BF00380240000402402F
:100BA00000180240000802400000024080B485B0F6
:100BB00000AF78600023FB607B68824A934206D2D4
:100BC0007B68B3F1006F02D30023FB60F3E07B6826
:100BD0007D4A934206D27B687A4A934202D301232C
:100BE000FB60E8E07B68794A934206D27B68764AEC
:100BF000934202D30223FB60DDE07B68744A934298
:100C000006D87B68714A934202D30323FB60D2E08B
:100C10007B68704A934206D87B686D4A934202D93A
:100C20000423FB60C7E07B686B4A934206D87B686D
:100C3000684A934202D90523FB60BCE07B68674A9F
:100C4000934206D87B68644A934202D90623FB602C
:100C5000B1E07B68624A934206D87B685F4A934260
:100C600002D90723FB60A6E07B685E4A934206D860
:100C70007B685B4A934202D90823FB609BE07B6858
:100C8000594A934206D87B68564A934202D90923AF
:100C9000FB6090E07B68554A934206D87B68524AD5
:100CA000934202D90A23FB6085E07B68B3F1016FB0
:100CB00006D27B684D4A934202D90B23FB607AE04F
:100CC0007B684B4A934206D27B68B3F1016F02D333
:100CD0000C23FB606FE07B68464A934206D27B6838
:100CE000434A934202D30D23FB6064E07B68424A8F
:100CF000934206D27B683F4A934202D30E23FB60A5
:100D000059E07B683D4A934206D87B683A4A934251
:100D100002D30F23FB604EE07B68394A934206D82A
:100D20007B68364A934202D91023FB6043E07B681C
:100D3000344A934206D87B68314A934202D9112340
:100D4000FB6038E07B68304A934206D87B682D4AC6
:100D5000934202D91223FB602DE07B682B4A934219
:100D600006D87B68284A934202D91323FB6022E00D
:100D70007B68274A934206D87B68244A934202D96B
:100D80001423FB6017E07B68224A934206D87B68F5
:100D90001F4A934202D91523FB600CE07B681E4A70
:100DA000934206D87B681B4A934202D91623FB6004
:100DB00001E01723FB60FB6818461437BD465DF859
:100DC000047B7047004000080080000800C0000855
:100DD000FFFF0008FFFF0108FFFF0308FFFF0508F2
:100DE000FFFF0708FFFF0908FFFF0B08FFFF0D08C3
:100DF000004010080080100800C01008FFFF100815
:100E0000FFFF1108FFFF1308FFFF1508FFFF17087A
:100E1000FFFF1908FFFF1B08FFFF1D0880B485B006
:100E200000AF78600023FB607B68002B14D07B68E8
:100E3000012B11D07B68022B0ED07B68032B0BD0CB
:100E40007B680C2B08D07B680D2B05D07B680E2BA4
:100E500002D07B680F2B03D14FF48043FB600CE082
:100E60007B68042B02D07B68102B03D14FF48033B6
:100E7000FB6002E04FF40033FB60FB681846143758
:100E8000BD465DF8047B704780B500AF01224FF48A
:100E90008041034801F048FC72B600BFFEE700BF86
:100EA0000004024080B483B000AF00237B60104B8D
:100EB0005B6C0F4A43F4804353640D4B5B6C03F44B
:100EC00080437B607B6800233B60094B1B6C084AB6
:100ED00043F080531364064B1B6C03F080533B605C
:100EE0003B6800BF0C37BD465DF8047B704700BF10
:100EF0000038024080B58EB000AF786007F124035F
:100F000000221A605A609A60DA601A617B681B6876
:100F1000554A934240F0A48000233B62534B1B6B25
:100F2000524A43F000731363504B1B6B03F0007382
:100F30003B623B6A0023FB614C4B1B6B4B4A43F00B
:100F400080631363494B1B6B03F08063FB61FB6998
:100F50000023BB61454B1B6B444A43F000631363A2
:100F6000424B1B6B03F00063BB61BB6900237B61D9
:100F70003E4B1B6B3D4A43F0040313633B4B1B6B1F
:100F800003F004037B617B6900233B61374B1B6BE0
:100F9000364A43F001031363344B1B6B03F0010328
:100FA0003B613B690023FB60304B1B6B2F4A43F0D6
:100FB000020313632D4B1B6B03F00203FB60FB6802
:100FC0000023BB60294B1B6B284A43F0400313638B
:100FD000264B1B6B03F04003BB60BB6832237B6274
:100FE0000223BB620023FB6203233B630B237B636F
:100FF00007F1240319461E4801F0EAF986237B62B3
:101000000223BB620023FB6203233B630B237B634E
:1010100007F124031946174801F0DAF94FF4005399
:101020007B620223BB620023FB6203233B630B232F
:101030007B6307F1240319460F4801F0C9F94FF407
:1010400020537B620223BB620023FB6203233B63CA
:101050000B237B6307F124031946084801F0B8F914
:1010600000BF3837BD4680BD0080024000380240D6
:101070000008024000000240000402400018024044
:1010800080B58EB000AF786007F1080330220021F0
:10109000184603F0B5FD7B681B680C4A934211D1DA
:1010A0002023BB604FF480733B6307F108031846AD
:1010B00001F0ECFF0346002B01D0FFF7E5FE044BE7
:1010C00001221A6000BF3837BD4680BD00280040AD
:1010D0003C0E474280B485B000AF78607B681B68E7
:1010E000B3F1804F0DD10023FB60094B1B6C084A04
:1010F00043F001031364064B1B6C03F00103FB6018
:10110000FB6800BF1437BD465DF8047B704700BF25
:101110000038024080B58AB000AF786007F1140350
:1011200000221A605A609A60DA601A617B681B6854
:101130001D4A934234D100233B611C4B1B6C1B4A5C
:1011400043F480231364194B1B6C03F480233B612D
:101150003B690023FB60154B1B6B144A43F00803EB
:101160001363124B1B6B03F00803FB60FB684FF427
:1011700040737B610223BB610023FB6103233B625D
:1011800007237B6207F114031946094801F020F98F
:1011900000220021272000F024FA272000F03DFA49
:1011A00000BF2837BD4680BD0048004000380240DF
:1011B000000C024080B400AFFEE780B400AFFEE751
:1011C00080B400AFFEE780B400AFFEE780B400AFAC
:1011D000FEE780B400AF00BFBD465DF8047B7047FA
:1011E00080B400AF00BFBD465DF8047B704780B49B
:1011F00000AF00BFBD465DF8047B704780B500AF0F
:1012000000F0D0F800BF80BD80B500AF024802F00A
:10121000A3FD00BF80BD00BF0803002080B586B0DD
:1012200000AF7860144A154BD31A7B617B693B6130
:10123000134B1B68002B02D1114B124A1A60104B42
:101240001A687B6813443A699A4207D203F0E0FCBB
:1012500003460C221A604FF0FF3309E0084B1B686D
:10126000FB60074B1A687B681344054A1360FB68F0
:1012700018461837BD4680BD00000320000400005A
:10128000AC0300202005002080B400AF064BD3F84B
:101290008830054A43F47003C2F8883000BFBD4669
:1012A0005DF8047B704700BF00ED00E0DFF834D04C
:1012B0000D480E490E4A002302E0D458C4500433AE
:1012C000C4188C42F9D30B4A0B4C002301E0136085
:1012D0000432A242FBD3FFF7D7FF03F09FFCFFF7D6
:1012E0007FF9704700000320000000205C00002010
:1012F000945500085C0000201C050020FEE700005B
:1013000080B500AF0E4B1B680D4A43F400731360A9
:101310000B4B1B680A4A43F480631360084B1B683D
:10132000074A43F480731360032000F04FF9002054
:1013300000F008F8FFF7B6FD0023184680BD00BF97
:10134000003C024080B582B000AF7860124B1A6852
:10135000124B1B7819464FF47A73B3FBF1F3B2FBCF
:10136000F3F3184600F067F90346002B01D0012380
:101370000EE07B680F2B0AD8002279684FF0FF300F
:1013800000F02FF9064A7B681360002300E0012378
:1013900018460837BD4680BD000000200800002028
:1013A0000400002080B400AF064B1B781A46064BA1
:1013B0001B681344044A136000BFBD465DF8047BFC
:1013C000704700BF08000020B003002080B400AFC9
:1013D000034B1B681846BD465DF8047B704700BF91
:1013E000B003002080B584B000AF7860FFF7EEFF57
:1013F000B8607B68FB60FB68B3F1FF3F05D00A4B28
:101400001B781A46FB681344FB6000BFFFF7DEFF42
:101410000246BB68D31AFA689A42F7D800BF00BFE9
:101420001037BD4680BD00BF0800002080B485B0E5
:1014300000AF78607B6803F00703FB600C4BDB6850
:10144000BB60BA684FF6FF031340BB60FB681A022B
:10145000BB68134343F0BF6343F40033BB60044AEB
:10146000BB68D36000BF1437BD465DF8047B70478E
:1014700000ED00E080B400AF044BDB681B0A03F012
:1014800007031846BD465DF8047B704700ED00E099
:1014900080B483B000AF0346FB7197F90730002B8F
:1014A0000BDBFB7903F01F02074997F907305B0953
:1014B000012000FA02F241F8232000BF0C37BD469C
:1014C0005DF8047B704700BF00E100E080B483B0AA
:1014D00000AF03463960FB7197F90730002B0ADB38
:1014E0003B68DAB20C4997F907301201D2B20B44CB
:1014F00083F800230AE03B68DAB20849FB7903F07D
:101500000F03043B1201D2B20B441A7600BF0C3712
:10151000BD465DF8047B704700E100E000ED00E0AF
:1015200080B489B000AFF860B9607A60FB6803F0FE
:101530000703FB61FB69C3F10703042B28BF0423E6
:10154000BB61FB690433062B02D9FB69033B00E056
:1015500000237B614FF0FF32BB6902FA03F3DA43E9
:10156000BB681A407B699A404FF0FF317B6901FAF2
:1015700003F3D9437B680B40134318462437BD4619
:101580005DF8047B7047000080B582B000AF7860E2
:101590007B68013BB3F1807F01D301230FE00A4A4E
:1015A0007B68013B53600F214FF0FF30FFF78EFF48
:1015B000054B00229A60044B07221A60002318464C
:1015C0000837BD4680BD00BF10E000E080B582B0A6
:1015D00000AF78607868FFF729FF00BF0837BD4685
:1015E00080BD80B586B000AF0346B9607A60FB73FA
:1015F00000237B61FFF73EFF78617A68B9687869FC
:10160000FFF78EFF024697F90F3011461846FFF795
:101610005DFF00BF1837BD4680BD80B582B000AF0A
:101620000346FB7197F907301846FFF731FF00BFFB
:101630000837BD4680BD80B582B000AF786078685D
:10164000FFF7A2FF034618460837BD4680BD80B5A8
:1016500084B000AF78607B689B6DFB60FFF7B6FEDF
:10166000B8607B6893F83530DBB2022B08D07B681A
:1016700080225A657B68002283F83420012352E0DF
:101680007B681B681A687B681B6822F016021A6068
:101690007B681B685A697B681B6822F080025A616C
:1016A0007B681B6C002B03D17B689B6C002B07D0E5
:1016B0007B681B681A687B681B6822F008021A6046
:1016C0007B681B681A687B681B6822F001021A603D
:1016D00013E0FFF77BFE0246BB68D31A052B0CD93B
:1016E0007B6820225A657B68032283F835207B685B
:1016F000002283F83420032315E07B681B681B68F5
:1017000003F00103002BE4D17B68DB6D3F229A409C
:10171000FB689A607B68012283F835207B68002291
:1017200083F83420002318461037BD4680BD80B4AE
:1017300083B000AF78607B6893F83530DBB2022B62
:1017400004D07B6880225A6501230CE07B68052267
:1017500083F835207B681B681A687B681B6822F059
:1017600001021A60002318460C37BD465DF8047B61
:101770007047000080B584B000AF78607B68002BB4
:1017800001D101236CE07B68D3F88430002B06D1B3
:101790007B682322C3F884207868FFF7ABFB002323
:1017A000BB60314B5B6C304A43F4804353642E4B37
:1017B0005B6C03F48043BB60BB682C4B5B682B4ABB
:1017C00023F400035360294B5A687B689B682749C0
:1017D00013434B60254B5B687B681B6803F58053A4
:1017E0001B687A68126843F0010302F580521360A7
:1017F000FFF7ECFDF86011E0FFF7E8FD0246FB683B
:10180000D31AB3F5FA7F09D97B680422C3F888207C
:101810007B68E022C3F88420012321E07B681B68F9
:1018200003F580531B6803F00103002BE4D17868B3
:1018300000F058F9786800F0FFF9786800F055FA80
:101840007B685B681A460021786800F0BDF97B6808
:101850000022C3F888207B681022C3F8842000236C
:1018600018461037BD4680BD0038024000380140A0
:1018700080B584B000AF786039607B681B681B68F6
:10188000FB60FA68514B1340FB603B681B7C002BEC
:1018900002D14FF4000200E000223B685B7C002B89
:1018A00002D14FF4800300E000231A433B689B6899
:1018B0001A433B68DB7F1B041A433B685B69134395
:1018C0003A68927F002A02D14FF4005200E00022D1
:1018D0001A433B681B7F1B031A433B689B691A43EF
:1018E0003B681B799B0213433A6892F82020002A38
:1018F00002D14FF4007200E000221A433B68DB7B08
:10190000DB011A433B685B6A1A433B6893F8283053
:101910001B011343FA681343FB607B681B68FA687A
:101920001A607B681B681B68FB600120FFF75AFD8B
:101930007B681B68FA681A607B681B689B69FB60A0
:10194000FA684FF641731340FB603B689B6C1B04C5
:101950003A6892F84C20002A01D1802200E000224F
:101960001A433B681B6D13433A6892F85520012ACD
:1019700001D1082200E0002213433A6892F8562071
:10198000012A01D1042200E0002213433A6892F8B0
:101990005420012A01D1022200E000221343FA68F8
:1019A0001343FB607B681B68FA689A617B681B685D
:1019B0009B69FB600120FFF715FD7B681B68FA68D7
:1019C0009A6100BF1037BD4680BD00BF0F8120FF68
:1019D00080B584B000AF786039607B681B6803F520
:1019E00080539B69FB60FA683D4B1340FB603B688A
:1019F0001B7B002B02D14FF0806200E000223B688D
:101A00005B7B5B0613433A68527F002A02D14FF496
:101A1000801200E000221A433B689B7B5B051A435F
:101A20003B685B691A433B681B7FDB011A433B68D9
:101A30009B7F9B011A433B681B6A1A433B6893F8E0
:101A400024309B001343FA681343FB607B681B68D8
:101A500003F580531A46FB6893617B681B6803F5A6
:101A600080539B69FB600120FFF7BCFC7B681B680F
:101A700003F580531A46FB6893613B681B795A064D
:101A80003B689B681A433B689B691A433B681B6928
:101A90001A433B6893F82530DB011A433B689B6A85
:101AA0009B001A433B681B6813437A68126843F42F
:101AB000000302F5805213607B681B6803F58053B6
:101AC0001B68FB600120FFF78DFC7B681B6803F53A
:101AD00080531A46FB68136000BF1037BD4680BDB7
:101AE000233FDEF880B5A6B000AF7860012387F809
:101AF0004430012387F845300023FB63002387F837
:101B00005330012387F85230002387F850300123E7
:101B100087F83830002387F85430002387F84330A3
:101B20000023BB65002387F85C300023FB6700239C
:101B300087F880300023C7F88430002387F88A3084
:101B4000002387F888304FF48043BB644FF4006370
:101B5000FB64002387F8893007F13403194678685D
:101B6000FFF786FE01233B7501237B75012387F870
:101B700025300123BB750023FB61002387F8243047
:101B8000002387F826300023BB62012387F82C301E
:101B900001233B734FF480333B614FF480033B627E
:101BA0004FF40053BB61012387F82D3000233B63C2
:101BB0000023BB6007F1080319467868FFF708FFA8
:101BC00000BF9837BD4680BD80B487B000AFF860D5
:101BD000B9607A607B6805331B781B027A6804322F
:101BE000127813437B61BA68114B13441A467B6920
:101BF00013607B6803331B781A067B6802331B78FB
:101C00001B041A437B6801331B781B0213437A6859
:101C1000127813437B61BA68064B13441A467B69FA
:101C2000136000BF1C37BD465DF8047B704700BFE2
:101C3000408002404480024080B485B000AF7860AC
:101C40000023FB603EE07B68D968FA6813469B007E
:101C50001344DB000B44BB60BB6800221A60BB6806
:101C600000225A60BB6800229A60BB680022DA60DA
:101C7000B9687B68FA68063243F82210BB681B68B3
:101C800043F48012BB681A60FB68022B0CD87B6897
:101C9000D968FB685A1C13469B001344DB000B44B5
:101CA0001A46BB68DA6004E07B68DB681A46BB68EA
:101CB000DA60BB681B6843F44002BB681A60FB68CB
:101CC0000133FB60FB68032BBDD97B6800229A625D
:101CD0007B68DA687B681B6803F580531A6100BF74
:101CE0001437BD465DF8047B704780B485B000AF03
:101CF00078600023FB6046E07B681969FA68134648
:101D00009B001344DB000B44BB60BB6800221A60DD
:101D1000BB6800225A60BB6800229A60BB68002240
:101D2000DA60BB6800221A62BB6800225A62BB6894
:101D30004FF000421A60BB6844F2F4525A60BB682C
:101D40005B6823F00042BB685A60B9687B68FA6838
:101D5000123243F82210FB68022B0CD87B681969F9
:101D6000FB685A1C13469B001344DB000B441A46C5
:101D7000BB68DA6004E07B681B691A46BB68DA60FE
:101D8000FB680133FB60FB68032BB5D97B6800223D
:101D9000DA657B6800221A667B6800229A667B6897
:101DA0000022DA667B6800229A657B681A697B6884
:101DB0001B6803F58053DA6000BF1437BD465DF839
:101DC000047B704780B586B000AFF860B960C7E9A2
:101DD00000230123FB75234B1B7E012B01D1022322
:101DE0003BE0204B01221A764CF2503000F070F8A4
:101DF0000346FB75FB7D002B2BD1FB68002B05D127
:101E00003B781946B86800F01BF916E0FB68012B17
:101E100005D13B881946B86800F0EEF80DE0FB6884
:101E2000022B05D13B681946B86800F0C3F804E0FE
:101E3000D7E90023B86800F08BF84CF2503000F07E
:101E400047F80346FB75084B1B69074A23F001035B
:101E50001361044B00221A76FB7D18461837BD46E5
:101E600080BD00BFB4030020003C024080B483B0BA
:101E700000AF0023FB710B4B1B69002B0BDA094BE6
:101E8000094A5A60074B094A5A60064B1B69002BE6
:101E900001DA0123FB71FB7918460C37BD465DF86A
:101EA000047B7047003C024023016745AB89EFCDBE
:101EB00080B400AF054B1B69044A43F00043136133
:101EC00000231846BD465DF8047B7047003C024085
:101ED00080B584B000AF78600023FB601A4B00220D
:101EE000DA61FFF773FAF86010E07B68B3F1FF3F47
:101EF0000CD07B68002B07D0FFF768FA0246FB681E
:101F0000D31A7A689A4201D2032319E00F4BDB6897
:101F100003F48033002BE8D10C4BDB6803F00103A2
:101F2000002B02D0094B0122DA60084BDB6803F476
:101F3000F973002B03D000F0A5F8012300E0002383
:101F400018461037BD4680BDB4030020003C024057
:101F500080B485B000AFF860C7E90023144B1B695B
:101F6000134A23F440731361114B1B69104A43F465
:101F7000407313610E4B1B690D4A43F0010313615B
:101F8000FB683A681A60BFF36F8F00BFD7E90001A2
:101F90004FF000024FF000030A000023F9680431FB
:101FA00013460B6000BF1437BD465DF8047B7047D5
:101FB000003C024080B483B000AF786039600D4BC4
:101FC0001B690C4A23F4407313610A4B1B69094ACD
:101FD00043F400731361074B1B69064A43F0010386
:101FE00013617B683A681A6000BF0C37BD465DF824
:101FF000047B7047003C024080B483B000AF78603F
:102000000B467B800D4B1B690C4A23F44073136114
:102010000A4B1B69094A43F480731361074B1B6920
:10202000064A43F0010313617B687A881A8000BF77
:102030000C37BD465DF8047B704700BF003C024092
:1020400080B483B000AF78600B46FB700C4B1B690B
:102050000B4A23F440731361094B094A1B6913614E
:10206000074B1B69064A43F0010313617B68FA784A
:102070001A7000BF0C37BD465DF8047B704700BF87
:10208000003C024080B400AF2F4BDB6803F010032C
:10209000002B08D02D4BDB6943F010032B4AD36192
:1020A000294B1022DA60284BDB6803F02003002B59
:1020B00008D0264BDB6943F00803244AD361224B46
:1020C0002022DA60204BDB6803F04003002B08D0AD
:1020D0001E4BDB6943F004031C4AD3611A4B4022B8
:1020E000DA60194BDB6803F08003002B08D0174B34
:1020F000DB6943F00203154AD361134B8022DA6097
:10210000114BDB6803F48073002B09D00F4BDB69A4
:1021100043F001030D4AD3610B4B4FF48072DA6038
:10212000094BDB6803F00203002B08D0074BDB6987
:1021300043F02003054AD361034B0222DA6000BF5B
:10214000BD465DF8047B7047003C0240B4030020AC
:1021500080B584B000AF786039600123FB73002341
:10216000BB60324B1B7E012B01D102235AE02F4B67
:1021700001221A764CF25030FFF7AAFE0346FB7399
:10218000FB7B002B4AD13B684FF0FF321A607B6823
:102190001B68012B17D17B681B69DAB27B685B680F
:1021A0001946104600F046F84CF25030FFF790FE0A
:1021B0000346FB731E4B1B691D4A23F4004323F0A7
:1021C0000403136128E07B689B68BB601CE07B68AC
:1021D0001B69DBB21946B86800F066F84CF2503063
:1021E000FFF776FE0346FB73114B1B69104A23F081
:1021F000FA031361FB7B002B03D03B68BA681A60BB
:102200000AE0BB680133BB607B68DA687B689B6867
:102210001344BA689A42DAD300F094F8034B0022D0
:102220001A76FB7B18461037BD4680BDB4030020EC
:10223000003C024080B483B000AF03463960FB71BC
:10224000184B1B69174A23F4407313613B68032B37
:1022500008D1144B1B69134A43F4004343F00403B1
:1022600013610FE03B68012B06D10E4B1B690D4A31
:1022700043F00403136105E00A4B1B69094A43F468
:1022800000431361074B1A69FB791B021343054A8C
:1022900043F48033136100BF0C37BD465DF8047B07
:1022A000704700BF003C024080B485B000AF78604A
:1022B0000B46FB700023FB60FB78002B02D1002350
:1022C000FB6010E0FB78012B03D14FF48073FB60BF
:1022D00009E0FB78022B03D14FF40073FB6002E0AE
:1022E0004FF44073FB607B680B2B02D97B6804338F
:1022F0007B60134B1B69124A23F440731361104B2C
:102300001A690F49FB6813430B610D4B1B690C4A9B
:1023100023F0F80313610A4B1A697B68DB0013434F
:10232000074A43F002031361054B1B69044A43F457
:102330008033136100BF1437BD465DF8047B7047DE
:10234000003C024080B400AF204B1B6803F40073D4
:10235000002B17D01D4B1B681C4A23F4007313601D
:102360001A4B1B68194A43F400631360174B1B6830
:10237000164A23F400631360144B1B68134A43F49A
:1023800000731360114B1B6803F48063002B17D09C
:102390000E4B1B680D4A23F4806313600B4B1B68C4
:1023A0000A4A43F480531360084B1B68074A23F41E
:1023B00080531360054B1B68044A43F48063136029
:1023C00000BFBD465DF8047B704700BF003C024083
:1023D00080B489B000AF7860396000237B6100234E
:1023E0003B610023BB610023FB6177E10122FB69B4
:1023F00002FA03F37B613B681B687A6913403B6117
:102400003A697B699A4240F066813B685B6803F0F9
:102410000303012B05D03B685B6803F00303022B29
:1024200030D17B689B68BB61FB695B00032202FAC9
:1024300003F3DB43BA691340BB613B68DA68FB69AD
:102440005B0002FA03F3BA691343BB617B68BA69A4
:102450009A607B685B68BB610122FB6902FA03F347
:10246000DB43BA691340BB613B685B681B0903F03F
:102470000102FB6902FA03F3BA691343BB617B688B
:10248000BA695A603B685B6803F00303032B17D0FB
:102490007B68DB68BB61FB695B00032202FA03F324
:1024A000DB43BA691340BB613B689A68FB695B0018
:1024B00002FA03F3BA691343BB617B68BA69DA6055
:1024C0003B685B6803F00303022B23D1FB69DA0846
:1024D0007B68083253F82230BB61FB6903F00703C5
:1024E0009B000F2202FA03F3DB43BA691340BB617E
:1024F0003B681A69FB6903F007039B0002FA03F3C8
:10250000BA691343BB61FB69DA087B680832B969B1
:1025100043F822107B681B68BB61FB695B000322E8
:1025200002FA03F3DB43BA691340BB613B685B68A3
:1025300003F00302FB695B0002FA03F3BA69134379
:10254000BB617B68BA691A603B685B6803F440331F
:10255000002B00F0C0800023FB60664B5B6C654A7B
:1025600043F480435364634B5B6C03F48043FB6030
:10257000FB68614AFB699B08023352F82330BB6158
:10258000FB6903F003039B000F2202FA03F3DB4312
:10259000BA691340BB617B68584A934237D07B6865
:1025A000574A934231D07B68564A93422BD07B687E
:1025B000554A934225D07B68544A93421FD07B688A
:1025C000534A934219D07B68524A934213D07B6896
:1025D000514A93420DD07B68504A934207D07B68A2
:1025E0004F4A934201D1092312E00A2310E0082345
:1025F0000EE007230CE006230AE0052308E004238D
:1026000006E0032304E0022302E0012300E00023AC
:10261000FA6902F0030292009340BA691343BB6166
:102620003549FB699B080233BA6941F823203D4BC9
:102630009B68BB613B69DB43BA691340BB613B6884
:102640005B6803F48013002B03D0BA693B69134322
:10265000BB61344ABB699360324BDB68BB613B6949
:10266000DB43BA691340BB613B685B6803F400134A
:10267000002B03D0BA693B691343BB61294ABB698C
:10268000D360284B5B68BB613B69DB43BA6913408D
:10269000BB613B685B6803F40033002B03D0BA696D
:1026A0003B691343BB611F4ABB6953601D4B1B68E9
:1026B000BB613B69DB43BA691340BB613B685B6844
:1026C00003F48033002B03D0BA693B691343BB6129
:1026D000144ABB691360FB690133FB61FB690F2B73
:1026E0007FF684AE00BF00BF2437BD465DF8047B93
:1026F000704700BF0038024000380140000002402F
:102700000004024000080240000C02400010024099
:102710000014024000180240001C02400020024049
:1027200000240240003C014080B483B000AF7860D8
:102730000B467B8013467B707B78002B03D07A8816
:102740007B689A6103E07B881A047B689A6100BF0A
:102750000C37BD465DF8047B7047000080B586B03D
:1027600000AF78607B68002B01D1012367E27B68B2
:102770001B6803F00103002B75D0884B9B6803F0A6
:102780000C03042B0CD0854B9B6803F00C03082B27
:1027900012D1824B5B6803F48003B3F5800F0BD139
:1027A0007E4B1B6803F40033002B5BD07B685B68B7
:1027B000002B57D1012342E27B685B68B3F5803F71
:1027C00006D1764B1B68754A43F4803313601DE0D5
:1027D0007B685B68B3F5A02F0CD1704B1B686F4A08
:1027E00043F4802313606D4B1B686C4A43F48033C1
:1027F00013600BE0694B1B68684A23F48033136055
:10280000664B1B68654A23F4802313607B685B6812
:10281000002B13D0FEF7DAFD386108E0FEF7D6FD95
:1028200002463B69D31A642B01D9032307E25B4BB1
:102830001B6803F40033002BF0D014E0FEF7C6FD54
:10284000386108E0FEF7C2FD02463B69D31A642BEB
:1028500001D90323F3E1514B1B6803F40033002B30
:10286000F0D100E000BF7B681B6803F00203002B7F
:1028700063D04A4B9B6803F00C03002B0BD0474BF3
:102880009B6803F00C03082B1CD1444B5B6803F4DA
:102890008003002B16D1414B1B6803F00203002B71
:1028A00005D07B68DB68012B01D00123C7E13B4BDE
:1028B0001B6823F0F8027B681B69DB003749134370
:1028C0000B603AE07B68DB68002B20D0344B0122A0
:1028D0001A60FEF77BFD386108E0FEF777FD0246DF
:1028E0003B69D31A022B01D90323A8E12B4B1B68A8
:1028F00003F00203002BF0D0284B1B6823F0F802F2
:102900007B681B69DB00254913430B6015E0244BF2
:1029100000221A60FEF75AFD386108E0FEF756FD06
:1029200002463B69D31A022B01D9032387E11B4BD3
:102930001B6803F00203002BF0D17B681B6803F0D7
:102940000803002B36D07B685B69002B16D0154B33
:1029500001221A60FEF73AFD386108E0FEF736FD05
:1029600002463B69D31A022B01D9032367E10B4BC3
:102970005B6F03F00203002BF0D01BE0094B002239
:102980001A60FEF723FD38610EE0FEF71FFD0246D8
:102990003B69D31A022B07D9032350E100380240C8
:1029A00000004742800E4742884B5B6F03F00203F2
:1029B000002BEAD17B681B6803F00403002B00F0B6
:1029C00097800023FB75814B1B6C03F08053002B19
:1029D0000FD10023BB607D4B1B6C7C4A43F08053BE
:1029E00013647A4B1B6C03F08053BB60BB680123FC
:1029F000FB75774B1B6803F48073002B18D1744B65
:102A00001B68734A43F480731360FEF7DFFC386180
:102A100008E0FEF7DBFC02463B69D31A022B01D922
:102A200003230CE16A4B1B6803F48073002BF0D086
:102A30007B689B68012B06D1644B1B6F634A43F094
:102A4000010313671CE07B689B68052B0CD15F4B6F
:102A50001B6F5E4A43F0040313675C4B1B6F5B4ABA
:102A600043F0010313670BE0584B1B6F574A23F0E9
:102A700001031367554B1B6F544A23F0040313677C
:102A80007B689B68002B15D0FEF7A0FC38610AE03C
:102A9000FEF79CFC02463B69D31A41F2883293420E
:102AA00001D90323CBE0494B1B6F03F00203002B3A
:102AB000EED014E0FEF78AFC38610AE0FEF786FCEF
:102AC00002463B69D31A41F28832934201D903236B
:102AD000B5E03E4B1B6F03F00203002BEED1FB7DF4
:102AE000012B05D1394B1B6C384A23F080531364FA
:102AF0007B689B69002B00F0A180344B9B6803F03E
:102B00000C03082B5CD07B689B69022B41D1314BB5
:102B100000221A60FEF75AFC386108E0FEF756FC06
:102B200002463B69D31A022B01D9032387E0274BC6
:102B30001B6803F00073002BF0D17B68DA697B68B7
:102B40001B6A1A437B685B6A9B011A437B689B6A1A
:102B50005B08013B1B041A437B68DB6A1B061B49AD
:102B600013434B601B4B01221A60FEF72FFC3861A8
:102B700008E0FEF72BFC02463B69D31A022B01D971
:102B800003235CE0114B1B6803F00073002BF0D0B3
:102B900054E0104B00221A60FEF718FC386108E080
:102BA000FEF714FC02463B69D31A022B01D903231A
:102BB00045E0064B1B6803F00073002BF0D13DE0AD
:102BC0007B689B69012B07D1012338E00038024064
:102BD00000700040600047421B4B5B68FB607B68F5
:102BE0009B69012B28D0FB6803F480027B68DB69BA
:102BF0009A4221D1FB6803F03F027B681B6A9A422C
:102C00001AD1FA6847F6C07313407A68526A920183
:102C1000934211D1FB6803F440327B689B6A5B08E6
:102C2000013B1B049A4207D1FB6803F070627B688A
:102C3000DB6A1B069A4201D0012300E000231846FC
:102C40001837BD4680BD00BF0038024080B584B053
:102C500000AF786039607B68002B01D10123CCE0A4
:102C6000684B1B6803F00F033A689A420CD9654B16
:102C70003A68D2B21A70634B1B6803F00F033A68CC
:102C80009A4201D00123B8E07B681B6803F002037D
:102C9000002B20D07B681B6803F00403002B05D0B9
:102CA000594B9B68584A43F4E05393607B681B6818
:102CB00003F00803002B05D0534B9B68524A43F4A2
:102CC00060439360504B9B6823F0F0027B689B68E5
:102CD0004D4913438B607B681B6803F00103002B95
:102CE00044D07B685B68012B07D1474B1B6803F41A
:102CF0000033002B19D101237FE07B685B68022B36
:102D000003D07B685B68032B07D13F4B1B6803F044
:102D10000073002B09D101236FE03B4B1B6803F0CC
:102D20000203002B01D1012367E0374B9B6823F09E
:102D300003027B685B68344913438B60FEF746FBF4
:102D4000F8600AE0FEF742FB0246FB68D31A41F244
:102D50008832934201D903234FE02B4B9B6803F049
:102D60000C027B685B689B009A42EBD1254B1B6889
:102D700003F00F033A689A420CD2224B3A68D2B25F
:102D80001A70204B1B6803F00F033A689A4201D077
:102D9000012332E07B681B6803F00403002B08D09A
:102DA000194B9B6823F4E0527B68DB681649134398
:102DB0008B607B681B6803F00803002B09D0124B63
:102DC0009B6823F460427B681B69DB000E49134358
:102DD0008B6000F021F802460B4B9B681B0903F047
:102DE0000F030A49CB5C22FA03F3094A1360094B2B
:102DF0001B681846FEF7A6FA002318461037BD4692
:102E000080BD00BF003C0240003802403855000839
:102E100000000020040000202DE9B04F94B000AF66
:102E200000237B640023FB6400233B640023BB641A
:102E3000794B9B6803F00C03082B0DD0082B00F294
:102E4000E180002B02D0042B03D0DBE0734BBB648A
:102E5000DBE0734BBB64D8E06F4B5B6803F03F0370
:102E60007B646D4B5B6803F48003002B63D06A4B7B
:102E70005B689B090022BB63FA63BB6BC3F3080367
:102E80003B6300237B63D7E90C4522462B464FF07A
:102E900000004FF00001590141EAD26150010246A1
:102EA0000B462146511A3961294663EB01037B61C8
:102EB0004FF000024FF00003D7E904AB59468B01F5
:102EC000514643EA916351468A015146B2EB0108EB
:102ED000594663EB01094FF000024FF000034FEA3F
:102EE000C90343EA58734FEAC802904699462346FD
:102EF00018EB0303BB602B4649EB0303FB604FF069
:102F000000024FF00003D7E9024529464B02214653
:102F100043EAD15321464A02104619467B6C0022EF
:102F2000BB62FA62D7E90A23FDF7B2F902460B4603
:102F30001346FB6458E0384B5B689B090022184637
:102F40001146C0F308033B6200237B62D7E908897E
:102F500042464B464FF000004FF00001590141EA54
:102F6000D261500102460B464146B2EB010A494686
:102F700063EB010B4FF000024FF000034FEA8B139D
:102F800043EA9A634FEA8A12B2EB0A0463EB0B0539
:102F90004FF000024FF00003EB0043EA5473E200ED
:102FA00014461D464346E3183B604B4645EB03037E
:102FB0007B604FF000024FF00003D7E9004529463F
:102FC0008B02214643EA915321468A021046194654
:102FD0007B6C0022BB61FA61D7E90623FDF758F943
:102FE00002460B461346FB640B4B5B681B0C03F05D
:102FF000030301335B003B64FA6C3B6CB2FBF3F3FD
:10300000BB6402E0054BBB6400BFBB6C1846503785
:10301000BD46BDE8B08F00BF003802400024F40078
:1030200000127A0080B400AF034B1B681846BD46FF
:103030005DF8047B704700BF0000002080B500AF42
:10304000FFF7F0FF0246054B9B689B0A03F007035E
:103050000349CB5C22FA03F3184680BD00380240D6
:103060004855000880B500AFFFF7DCFF0246054B6E
:103070009B685B0B03F007030349CB5C22FA03F365
:10308000184680BD003802404855000880B586B01B
:1030900000AF786000237B6100233B617B681B6885
:1030A00003F00103002B0BD17B681B6803F00203C4
:1030B000002B05D17B681B6803F04003002B75D003
:1030C000914B00221A60FEF781F9786108E0FEF763
:1030D0007DF902467B69D31A022B01D9032389E1CA
:1030E0008A4B1B6803F00063002BF0D17B681B68E0
:1030F00003F00103002B09D07B685B689A017B68B1
:103100009B681B0781491343C1F884307B681B68A7
:1031100003F00203002B1FD07C4BD3F884301B0F2D
:1031200003F007033B617B685B689A017B68DB689F
:103130001B061A433B691B0774491343C1F88430CB
:10314000724BD3F88C3023F01F027B68DB69013BA4
:103150006E491343C1F88C307B681B6803F0400351
:10316000002B0DD07B685B689A017B68DB681B06CF
:103170001A437B689B681B0764491343C1F884307A
:10318000614B01221A60FEF721F9786108E0FEF731
:103190001DF902467B69D31A022B01D9032329E1C9
:1031A0005A4B1B6803F00063002BF0D07B681B6850
:1031B00003F00403002B05D17B681B6803F00803B0
:1031C000002B79D0524B00221A60FEF7FFF878618D
:1031D00008E0FEF7FBF802467B69D31A022B01D9FF
:1031E000032307E1494B1B6803F00053B3F1005F71
:1031F000EFD07B681B6803F00403002B20D0434B07
:10320000D3F888301B0F03F007033B617B681B6911
:103210009A017B685B691B061A433B691B073B49A4
:103220001343C1F88830394BD3F88C3023F4F8526B
:103230007B681B6A013B1B0234491343C1F88C3085
:103240007B681B6803F00803002B1ED02F4BD3F8BC
:1032500088301B0E03F00F033B617B681B699A01EA
:103260003B691B061A437B689B691B07274913436D
:10327000C1F88830254BD3F88C3023F440327B687A
:103280005B6A22491343C1F88C30214B01221A603A
:10329000FEF79CF8786108E0FEF798F802467B6933
:1032A000D31A022B01D90323A4E0184B1B6803F0A7
:1032B0000053B3F1005FEFD17B681B6803F020037C
:1032C000002B00F08B800023FB60104B1B6C0F4A1F
:1032D00043F0805313640D4B1B6C03F08053FB6071
:1032E000FB680C4B1B680B4A43F480731360FEF7BA
:1032F0006DF8786110E0FEF769F802467B69D31A31
:10330000022B09D9032375E06800474200380240C8
:103310007000474200700040384B1B6803F4807314
:10332000002BE8D0364B1B6F03F440733B613B69C5
:10333000002B2FD07B689B6A03F440733A699A4252
:1033400028D02F4B1B6F23F440733B612D4B012280
:103350001A602C4B00221A60294A3B691367284BDC
:103360001B6F03F00103012B14D1FEF72FF87861D6
:103370000AE0FEF72BF802467B69D31A41F2883245
:10338000934201D9032335E01D4B1B6F03F0020369
:10339000002BEED07B689B6A03F44073B3F5407F4B
:1033A0000DD1174B9B6823F4F8127B689B6A23F0BE
:1033B000704323F44073124913438B6005E0104BB4
:1033C0009B680F4A23F4F81393600D4B1A6F7B68C8
:1033D0009B6AC3F30B030A4913430B677B681B68A3
:1033E00003F01003002B04D07B6893F82C20064BCD
:1033F0001A60002318461837BD4680BD0070004093
:1034000000380240400E4742E011474280B584B088
:1034100000AF78600123FB737B68002B01D101238F
:1034200066E07B685B7FDBB2002B05D17B68002206
:103430001A777868FDF724FE7B6802225A777B684A
:103440001B68CA225A627B681B6853225A627868DA
:1034500000F07AF80346FB73FB7B002B2CD17B68D2
:103460001B689B687A68126823F4E00323F040032A
:1034700093607B681B6899687B685A687B681B69E6
:103480001A437B685B691A437B681B680A439A602E
:103490007B681B687A68D2681A617B681B68196947
:1034A0007B689B681A047B681B680A431A6178680A
:1034B00000F081F80346FB73FB7B002B13D17B6884
:1034C0001B681A6C7B681B6822F480221A647B6874
:1034D0001B68196C7B689A697B681B680A431A64CD
:1034E0007B6801225A777B681B68FF225A62FB7B4C
:1034F00018461037BD4680BD80B584B000AF7860F7
:103500000023FB607B681B68DA687B681B6822F01D
:10351000A002DA60FDF75AFFF86009E0FDF756FFF8
:103520000246FB68D31AB3F57A7F01D9032307E07B
:103530007B681B68DB6803F02003002BEED00023C0
:1035400018461037BD4680BD80B584B000AF7860A6
:103550000023BB600023FB737B681B68DB6803F000
:103560004003002B22D17B681B68DA687B681B68EC
:1035700042F08002DA60FDF729FFB8600CE0FDF749
:1035800025FF0246BB68D31AB3F57A7F04D97B685E
:1035900004225A770123FB737B681B68DB6803F006
:1035A0004003002B02D1FB7B012BE8D1FB7B1846AB
:1035B0001037BD4680BD80B584B000AF7860002371
:1035C000FB737B681B68DA687B681B6822F08002EB
:1035D000DA607B681B689B6803F02003002B0AD12C
:1035E0007868FFF789FF0346002B04D07B6804222C
:1035F0005A770123FB73FB7B18461037BD4680BD0D
:1036000080B582B000AF78607B68002B01D10123C8
:1036100041E07B6893F83D30DBB2002B06D17B683C
:10362000002283F83C207868FDF754FD7B68022275
:1036300083F83D207B681A687B680433194610467E
:1036400000F0F4F87B68012283F846207B680122B1
:1036500083F83E207B68012283F83F207B680122AB
:1036600083F840207B68012283F841207B68012297
:1036700083F842207B68012283F843207B68012283
:1036800083F844207B68012283F845207B6801226F
:1036900083F83D20002318460837BD4680BD80B51D
:1036A00084B000AF786039600023FB737B6893F8C7
:1036B0003C30012B01D10223B4E07B68012283F866
:1036C0003C207B68022283F83D207B681B689B6856
:1036D000BB60BB6823F07703BB60BB6823F47F4308
:1036E000BB607B681B68BA689A603B681B68B3F56F
:1036F000005F3ED0B3F5005F00F28780B3F5805FD6
:1037000000F08680B3F5805F7FD8702B1AD0702BC5
:103710007BD8602B50D0602B77D8502B3CD0502BCF
:1037200073D8402B58D0402B6FD8302B64D0302B1F
:103730006BD8202B60D0202B67D8002B5CD0102BAF
:103740005AD062E07B6818683B6899683B685A68A1
:103750003B68DB6800F084F97B681B689B68BB6092
:10376000BB6843F07703BB607B681B68BA689A60EC
:103770004FE07B6818683B6899683B685A683B680B
:10378000DB6800F06DF97B681B689A687B681B68D2
:1037900042F480429A603CE07B6818683B68596854
:1037A0003B68DB681A4600F0E1F87B681B68502133
:1037B000184600F03AF92CE07B6818683B685968B5
:1037C0003B68DB681A4600F000F97B681B686021E3
:1037D000184600F02AF91CE07B6818683B685968B5
:1037E0003B68DB681A4600F0C1F87B681B68402123
:1037F000184600F01AF90CE07B681A683B681B68F1
:103800001946104600F011F903E00123FB7300E0B4
:1038100000BF7B68012283F83D207B68002283F88B
:103820003C20FB7B18461037BD4680BD80B485B078
:1038300000AF786039607B681B68FB607B68404A3A
:10384000934213D07B68B3F1804F0FD07B683D4A21
:1038500093420BD07B683C4A934207D07B683B4A3B
:10386000934203D07B683A4A934208D1FB6823F025
:103870007003FB603B685B68FA681343FB607B681E
:103880002F4A93422BD07B68B3F1804F27D07B68BF
:103890002C4A934223D07B682B4A93421FD07B68EB
:1038A0002A4A93421BD07B68294A934217D07B68EF
:1038B000284A934213D07B68274A93420FD07B68F3
:1038C000264A93420BD07B68254A934207D07B68F7
:1038D000244A934203D07B68234A934208D1FB6871
:1038E00023F44073FB603B68DB68FA681343FB60BA
:1038F000FB6823F080023B685B691343FB607B68D5
:10390000FA681A603B689A687B68DA623B681A68F2
:103910007B689A627B680A4A934203D07B680C4AB0
:10392000934203D13B681A697B681A637B68012262
:103930005A6100BF1437BD465DF8047B704700BF75
:10394000000001400004004000080040000C00405E
:103950000004014000400140004401400048014093
:1039600000180040001C00400020004080B487B0D8
:1039700000AFF860B9607A60FB681B6A7B61FB6826
:103980001B6A23F00102FB681A62FB689B693B61BA
:103990003B6923F0F0033B617B681B013A691343E9
:1039A0003B617B6923F00A037B617A69BB6813433F
:1039B0007B61FB683A699A61FB687A691A6200BFA9
:1039C0001C37BD465DF8047B704780B487B000AFFC
:1039D000F860B9607A60FB681B6A23F01002FB682C
:1039E0001A62FB689B697B61FB681B6A3B617B69B0
:1039F00023F470437B617B681B037A6913437B610B
:103A00003B6923F0A0033B61BB681B013A69134388
:103A10003B61FB687A699A61FB683A691A6200BF88
:103A20001C37BD465DF8047B704780B485B000AF9D
:103A3000786039607B689B68FB60FB6823F07003EB
:103A4000FB603A68FB68134343F00703FB607B6845
:103A5000FA689A6000BF1437BD465DF8047B704772
:103A600080B487B000AFF860B9607A603B60FB68F3
:103A70009B687B617B6923F47F437B613B681A020F
:103A80007B681A43BB6813437A6913437B61FB6805
:103A90007A699A6000BF1C37BD465DF8047B7047A9
:103AA00080B485B000AF786039607B6893F83C30B3
:103AB000012B01D102235AE07B68012283F83C20CC
:103AC0007B68022283F83D207B681B685B68FB6093
:103AD0007B681B689B68BB60FB6823F07003FB601E
:103AE0003B681B68FA681343FB607B681B68FA68D5
:103AF0005A607B681B68214A934222D07B681B680E
:103B0000B3F1804F1DD07B681B681D4A934218D0CB
:103B10007B681B681B4A934213D07B681B681A4A58
:103B200093420ED07B681B68184A934209D07B6889
:103B30001B68174A934204D07B681B68154A93425E
:103B40000CD1BB6823F08003BB603B685B68BA683C
:103B50001343BB607B681B68BA689A607B6801226C
:103B600083F83D207B68002283F83C200023184620
:103B70001437BD465DF8047B704700BF000001406C
:103B80000004004000080040000C00400004014018
:103B9000004001400018004080B582B000AF78605E
:103BA0007B68002B01D101233FE07B6893F83D3017
:103BB000DBB2002B06D17B68002283F83C207868BA
:103BC000FDF7A8FA7B68242283F83D207B681B68F8
:103BD000DA687B681B6822F40052DA60786800F0CB
:103BE0007BFD7B681B681A697B681B6822F4904226
:103BF0001A617B681B685A697B681B6822F02A027D
:103C00005A617B681B68DA687B681B6842F4005263
:103C1000DA607B6800221A647B68202283F83D20EA
:103C20007B68202283F83E20002318460837BD46D3
:103C300080BD80B58AB002AFF860B9603B601346C2
:103C4000FB8000237B61FB6893F83D30DBB2202BC7
:103C50007CD1BB68002B02D0FB88002B01D1012353
:103C600075E0FB6893F83C30012B01D102236EE034
:103C7000FB68012283F83C20FB6800221A64FB6881
:103C8000212283F83D20FDF7A1FB7861FB68FA88CB
:103C90009A84FB68FA88DA84FB689B68B3F5805FD6
:103CA00008D1FB681B69002B04D10023FB61BB68B2
:103CB000BB6103E0BB68FB610023BB61FB680022C2
:103CC00083F83C202AE03B6800937B690022802136
:103CD000F86800F0F9FA0346002B01D0032336E020
:103CE000FB69002B0BD1BB691B881A46FB681B685C
:103CF000C2F308025A60BB690233BB6107E0FB698B
:103D00001A78FB681B685A60FB690133FB61FB682A
:103D1000DB8C9BB2013B9AB2FB68DA84FB68DB8CDC
:103D20009BB2002BCFD13B6800937B6900224021DE
:103D3000F86800F0C9FA0346002B01D0032306E01F
:103D4000FB68202283F83D20002300E00223184670
:103D50002037BD4680BD000080B5BAB000AF7860A6
:103D60007B681B681B68C7F8E4307B681B68DB68EE
:103D7000C7F8E0307B681B685B69C7F8DC3000235C
:103D8000C7F8D8300023C7F8D430D7F8E43003F0B0
:103D90000F03C7F8D830D7F8D830002B0FD1D7F899
:103DA000E43003F02003002B09D0D7F8E03003F013
:103DB0002003002B03D0786800F0D3FB56E2D7F83D
:103DC000D830002B00F0DE80D7F8DC3003F00103A0
:103DD000002B06D1D7F8E03003F49073002B00F0ED
:103DE000D180D7F8E43003F00103002B0BD0D7F8D3
:103DF000E03003F48073002B05D07B681B6C43F02C
:103E000001027B681A64D7F8E43003F00403002B46
:103E10000BD0D7F8DC3003F00103002B05D07B6812
:103E20001B6C43F002027B681A64D7F8E43003F09D
:103E30000203002B0BD0D7F8DC3003F00103002B7A
:103E400005D07B681B6C43F004027B681A64D7F8CA
:103E5000E43003F00803002B11D0D7F8E03003F072
:103E60002003002B05D1D7F8DC3003F00103002B31
:103E700005D07B681B6C43F008027B681A647B6882
:103E80001B6C002B00F0ED81D7F8E43003F0200329
:103E9000002B08D0D7F8E03003F02003002B02D02D
:103EA000786800F05EFB7B681B685B6903F0400389
:103EB000402B0CBF01230023DBB2C7F8D4307B6852
:103EC0001B6C03F00803002B03D1D7F8D430002B70
:103ED0004FD0786800F066FA7B681B685B6903F076
:103EE0004003402B41D17B681B681433C7F89C30DA
:103EF000D7F89C3053E8003FC7F89830D7F898308F
:103F000023F04003C7F8D0307B681B681433D7F820
:103F1000D020C7F8A820C7F8A430D7F8A410D7F845
:103F2000A82041E80023C7F8A030D7F8A030002B24
:103F3000D9D17B689B6B002B13D07B689B6B7D4A30
:103F40001A657B689B6B1846FDF7F1FB0346002B57
:103F500016D07B689B6B1B6D7A68926B10469847F6
:103F60000EE0786800F09AF90AE0786800F096F9B7
:103F700006E0786800F092F97B6800221A6470E12C
:103F800000BF6EE17B681B6B012B40F04A81D7F8C4
:103F9000E43003F01003002B00F04381D7F8E03049
:103FA00003F01003002B00F03C810023BB607B6812
:103FB0001B681B68BB607B681B685B68BB60BB6879
:103FC0007B681B685B6903F04003402B40F0B480C2
:103FD0007B689B6B1B685B68A7F8BE30B7F8BE3088
:103FE000002B00F040817B689B8DB7F8BE209A4281
:103FF00080F039817B68B7F8BE20DA857B689B6BDF
:10400000DB69B3F5807F00F088807B681B680C3328
:10401000C7F88830D7F8883053E8003FC7F88430B5
:10402000D7F8843023F48073C7F8B8307B681B68F6
:104030000C33D7F8B820C7F89420C7F89030D7F8D9
:104040009010D7F8942041E80023C7F88C30D7F8B7
:104050008C30002BD9D17B681B6814337B677B6F56
:1040600053E8003F3B673B6F23F00103C7F8B430D0
:104070007B681B681433D7F8B420C7F88020FB672F
:10408000F96FD7F8802041E80023BB67BB6F002B96
:10409000E1D17B681B6814333B663B6E53E8003FFD
:1040A000FB65FB6D23F04003C7F8B0307B681B68ED
:1040B0001433D7F8B020FA66BB66B96EFA6E41E8E1
:1040C00000237B667B6E002BE3D17B68202283F884
:1040D0003E207B6800221A637B681B680C33FB64FC
:1040E000FB6C53E8003FBB64BB6C23F01003C7F8C4
:1040F000AC307B681B680C33D7F8AC20BA657B65A5
:10410000796DBA6D41E800233B653B6D002BE3D12F
:104110007B689B6B1846FDF79AFA7B689A8D7B68E3
:10412000DB8D9BB2D31A9BB21946786800F0C0F8B9
:1041300099E000BF6B4400087B689A8D7B68DB8D3B
:104140009BB2D31AA7F8CE307B68DB8D9BB2002BD5
:1041500000F08B80B7F8CE30002B00F086807B68B3
:104160001B680C33BB63BB6B53E8003F7B637B6B0B
:1041700023F49073C7F8C8307B681B680C33D7F8FA
:10418000C8207A643B64396C7A6C41E80023FB6395
:10419000FB6B002BE3D17B681B6814337B627B6A6B
:1041A00053E8003F3B623B6A23F00103C7F8C43089
:1041B0007B681B681433D7F8C4203A63FB62F96A42
:1041C0003A6B41E80023BB62BB6A002BE3D17B68FA
:1041D000202283F83E207B6800221A637B681B68DC
:1041E0000C333B613B6953E8003FFB60FB6823F005
:1041F0001003C7F8C0307B681B680C33D7F8C020A9
:10420000FA61BB61B969FA6941E800237B617B69A6
:10421000002BE3D1B7F8CE301946786800F048F8A3
:1042200023E0D7F8E43003F08003002B09D0D7F85F
:10423000E03003F08003002B03D0786800F029F908
:1042400014E0D7F8E43003F04003002B0ED0D7F889
:10425000E03003F04003002B08D0786800F069F9E3
:1042600004E000BF02E000BF00E000BFE837BD4649
:1042700080BD00BF80B483B000AF786000BF0C3752
:10428000BD465DF8047B704780B483B000AF7860B2
:1042900000BF0C37BD465DF8047B704780B483B027
:1042A00000AF786000BF0C37BD465DF8047B7047F7
:1042B00080B483B000AF78600B467B8000BF0C37C2
:1042C000BD465DF8047B704780B590B000AFF860E4
:1042D000B9603B601346FB7150E0BB6CB3F1FF3F2C
:1042E0004CD0BB6C002B07D0FDF770F802463B6842
:1042F000D31ABA6C9A4241D2FB681B680C33BB627A
:10430000BB6A53E8003F7B627B6A23F4D073FB6394
:10431000FB681B680C33FA6B7A633B63396B7A6B0F
:1043200041E80023FB62FB6A002BE5D1FB681B68B8
:1043300014337B617B6953E8003F3B613B6923F0A9
:104340000103BB63FB681B681433BA6B3A62FB6101
:10435000F9693A6A41E80023BB61BB69002BE5D1EA
:10436000FB68202283F83D20FB68202283F83E2052
:10437000FB68002283F83C2003230FE0FB681B68E6
:104380001A68BB681340BA689A420CBF0123002325
:10439000DBB21A46FB799A429FD000231846403779
:1043A000BD4680BD80B495B000AF78607B681B6867
:1043B0000C337B637B6B53E8003F3B633B6B23F425
:1043C0009073FB647B681B680C33FA6C3A64FB6384
:1043D000F96B3A6C41E80023BB63BB6B002BE5D162
:1043E0007B681B6814333B623B6A53E8003FFB6108
:1043F000FB6923F00103BB647B681B681433BA6C50
:10440000FA62BB62B96AFA6A41E800237B627B6A9E
:10441000002BE5D17B681B6B012B19D17B681B68D6
:104420000C33FB60FB6853E8003FBB60BB6823F0C4
:1044300010037B647B681B680C337A6CBA617B6108
:104440007969BA6941E800233B613B69002BE5D1FA
:104450007B68202283F83E207B6800221A6300BF1D
:104460005437BD465DF8047B704780B584B000AF1B
:1044700078607B689B6BFB60FB680022DA85FB68D9
:104480000022DA84F868FFF709FF00BF1037BD4645
:1044900080BD80B485B000AF78607B6893F83D3014
:1044A000DBB2212B3ED17B689B68B3F5805F14D1D2
:1044B0007B681B69002B10D17B681B6AFB60FB6863
:1044C0001B881A467B681B68C2F308025A607B6827
:1044D0001B6A9A1C7B681A6208E07B681B6A591C7D
:1044E0007A6811621A787B681B685A607B68DB8C7B
:1044F0009BB2013B9BB27A681946D184002B0FD145
:104500007B681B68DA687B681B6822F08002DA60CF
:104510007B681B68DA687B681B6842F04002DA60DF
:10452000002300E0022318461437BD465DF8047BE3
:10453000704780B582B000AF78607B681B68DA682E
:104540007B681B6822F04002DA607B68202283F8D7
:104550003D207868FFF78EFE002318460837BD46D9
:1045600080BD80B58CB000AF78607B6893F83E303A
:10457000DBB2222B40F0AB807B689B68B3F5805F99
:1045800017D17B681B69002B13D10023FB627B686A
:104590009B6ABB627B681B685B689BB2C3F30803C2
:1045A0009AB2BB6A1A807B689B6A9A1C7B689A6283
:1045B00026E07B689B6AFB620023BB627B689B688A
:1045C000B3F5805F07D07B689B68002B0AD17B68BE
:1045D0001B69002B06D17B681B685B68DAB2FB6A3B
:1045E0001A7008E07B681B685B68DBB203F07F032E
:1045F000DAB2FB6A1A707B689B6A5A1C7B689A6203
:104600007B68DB8D9BB2013B9BB27A681946D185F2
:10461000002B5AD17B681B68DA687B681B6822F024
:104620002002DA607B681B68DA687B681B6822F40A
:104630008072DA607B681B685A697B681B6822F0AD
:1046400001025A617B68202283F83E207B681B6B45
:10465000012B35D17B6800221A637B681B680C3301
:104660007B617B6953E8003F3B613B6923F01003AA
:104670007B627B681B680C337A6A3A62FB61F9697A
:104680003A6A41E80023BB61BB69002BE5D17B6836
:104690001B681B6803F01003102B0AD10023FB607A
:1046A0007B681B681B68FB607B681B685B68FB6042
:1046B000FB687B689B8D19467868FFF7F9FD02E07F
:1046C0007868FFF7E1FD002302E0002300E0022309
:1046D00018463037BD4680BD2DE9B04FC0B000AFA1
:1046E000C7F8F400D7F8F4301B681B6923F4405076
:1046F000D7F8F430D968D7F8F4301A6840EA0103E3
:104700001361D7F8F4309A68D7F8F4301B691A436C
:10471000D7F8F4305B691A43D7F8F430DB691343F8
:10472000C7F8F830D7F8F4301B68DB6823F416417B
:1047300021F00C01D7F8F4301A68D7F8F8300B43A1
:10474000D360D7F8F4301B685B6923F44070D7F866
:10475000F4309969D7F8F4301A6840EA01035361DC
:10476000D7F8F4301A688F4B9A4205D0D7F8F43056
:104770001A688D4B9A4204D1FEF774FCC7F8FC000E
:1047800003E0FEF75BFCC7F8FC00D7F8F430DB6908
:10479000B3F5004F40F00C81D7F8FC300022C7F889
:1047A000E830C7F8EC20D7E93A4522462B46911865
:1047B000B9655B41FB65D7E91623214612EB010879
:1047C000294643EB01094FF000024FF000034FEA86
:1047D000C90343EA58734FEAC802904699462346F4
:1047E00018EB0303C7F8E0302B4649EB0303C7F887
:1047F000E430D7F8F4305B680022C7F8D830C7F847
:10480000DC20D7E936120B46DB183B65134642EB3A
:1048100003037B65D7E91423D7E93801FBF738FD9B
:1048200002460B46614BA3FB02235B091C01D7F830
:10483000FC300022C7F8D030C7F8D420D7E934893B
:1048400042464B469118B9645B41FB64D7E9122399
:10485000414612EB010A494643EB010B4FF00002BF
:104860004FF000034FEACB0343EA5A734FEACA0200
:1048700092469B4643461AEB0303C7F8C8304B46A3
:104880004BEB0303C7F8CC30D7F8F4305B68002259
:10489000C7F8C030C7F8C420D7E930120B46DB1880
:1048A0003B64134642EB03037B64D7E91023D7E94B
:1048B0003201FBF7EDFC02460B4611463B4BA3FBD6
:1048C00001235B09642202FB03F3CB1ADB0003F133
:1048D0003202364BA3FB02235B095B0003F4F8733F
:1048E0001C44D7F8FC300022C7F8B830C7F8BC2009
:1048F000D7E92E8942464B469118B9635B41FB6369
:10490000D7E90E2341465118396349464B417B6331
:104910004FF000024FF00003D7E90CAB5946CB0033
:10492000514643EA51735146CA00104619460346A0
:1049300042469B18C7F8B0304B460A4642EB030389
:10494000C7F8B430D7F8F4305B680022C7F8A83055
:10495000C7F8AC20D7E92A120B46DB18BB62134616
:1049600042EB0303FB62D7E90A23D7E92C01FBF7EB
:104970008FFC02460B460D4BA3FB02135B0964211F
:1049800001FB03F3D31ADB003233084AA2FB0323F3
:104990005B0903F00702D7F8F4301B6822449A60E1
:1049A00006E100BF00100140001401401F85EB51DB
:1049B000D7F8FC300022C7F8A030C7F8A420D7E908
:1049C000288942464B46911839625B417B62D7E9A0
:1049D000082341465418494643EB01054FF00002B5
:1049E0004FF00003EB0043EA5473E20014461D4607
:1049F0004346E318C7F898304B4645EB0303C7F826
:104A00009C30D7F8F4305B680022C7F89030C7F8C4
:104A100094204FF000024FF00003D7E924452946C7
:104A20008B00214643EA917321468A00D7E926018B
:104A3000FBF72EFC02460B46604BA3FB02235B09EF
:104A40001C01D7F8FC300022C7F88830C7F88C204A
:104A5000D7E9228942464B469118B9615B41FB6117
:104A6000D7E9062341465118396149464B417B61DC
:104A70004FF000024FF00003D7E904AB5946CB00DA
:104A8000514643EA51735146CA001046194603463F
:104A900042469B18C7F880304B460A4642EB030358
:104AA000C7F88430D7F8F4305B680022BB67FA6738
:104AB0004FF000024FF00003D7E91E8949468B00F2
:104AC000414643EA917341468A00D7E92001FBF74A
:104AD000DFFB02460B461146384BA3FB01235B0963
:104AE000642202FB03F3CB1A1B013233334AA2FBCD
:104AF00003235B0903F0F0031C44D7F8FC300022C9
:104B00003B677A67D7E91C8942464B469118B960E2
:104B10005B41FB60D7E902234146511839604946A1
:104B20004B417B604FF000024FF00003D7E900AB30
:104B30005946CB00514643EA51735146CA001046CC
:104B40001946034642469B18BB664B460A4642EB53
:104B50000303FB66D7F8F4305B6800223B667A6695
:104B60004FF000024FF00003D7E9188949468B0047
:104B7000414643EA917341468A00D7E91A01FBF79F
:104B800087FB02460B460D4BA3FB02135B09642116
:104B900001FB03F3D31A1B013233084AA2FB0323A0
:104BA0005B0903F00F02D7F8F4301B6822449A60C7
:104BB00000BF07F58077BD46BDE8B08F1F85EB517C
:104BC0000EB400B59CB01DAB029006906FF0004192
:104BD000094807910491094953F8042B059100688D
:104BE000019302A900F092F9029B00221A701CB0F6
:104BF0005DF804EB03B07047580000200802FFFF87
:104C000002440346934200D1704703F8011BF9E7C1
:104C1000014B1868704700BF5800002070B50D4D5B
:104C20000D4C641BA4100026A64209D10B4D0C4C60
:104C300000F06AFC641BA4100026A64205D170BDDA
:104C400055F8043B98470136EEE755F8043B984782
:104C50000136F2E78C5500088C5500088C55000889
:104C6000905500087047704737B5002944D051F877
:104C7000043C0190002BA1F10404B8BFE41800F03B
:104C8000DFF81E4A0198136833B96360146003B0FB
:104C9000BDE8304000F0DAB8A34208D925686119B0
:104CA0008B4201BF19685B6849192160EDE71A461C
:104CB0005B680BB1A342FAD911685518A5420BD114
:104CC000246821445418A3421160E0D11C685B6839
:104CD00053600C441460DAE702D90C230360D6E772
:104CE000256861198B4204BF19685B68636004BF63
:104CF000491921605460CAE703B030BD1405002093
:104D000070B50E4E0C463168054611B900F0A6FB91
:104D100030602146284600F0A1FB431C0AD0C41C89
:104D200024F00304A04207D0211A284600F096FB85
:104D3000013001D14FF0FF34204670BD180500202E
:104D40002DE9F843CD1C25F0030508350C2D38BF9F
:104D50000C25002D074601DBA94205D90C233B6039
:104D600000263046BDE8F883DFF8D08000F068F810
:104D7000D8F800301C465CBB29463846FFF7C0FF18
:104D8000431C044655D1D8F800402646002E45D194
:104D9000002C48D023683146384604EB030900F064
:104DA0005DFB81453FD121686D1A29463846FFF7E2
:104DB000A7FF013037D023682B442360D8F8003098
:104DC000002B38D05A68A2422BD100225A600FE043
:104DD0002268521B1FD40B2A17D96119A3422560E0
:104DE00018BF5960636808BFC8F8001062514B6073
:104DF000384604F10B0600F029F826F00706231DBB
:104E0000F21AAED09B1BA350ABE7A3426268DDD180
:104E1000C8F80020ECE723466468ACE734467668BF
:104E2000B4E71346CCE70C233B60384600F00EF89D
:104E300097E72560DCE75B60FFDE00BF140500201C
:104E40000148FFF70FBF00BF100500200148FFF722
:104E50000ABF00BF100500202DE9F0478E681F46ED
:104E6000BE420B6882460C4690462CD88A8912F4C2
:104E7000906F26D06569096905EB4505A3EB01092B
:104E800005EBD5757B1C4B446D109D4238BF1D460C
:104E9000530527D52946FFF753FF064660B321691E
:104EA0004A4600F0EBFAA38923F4906343F08003B1
:104EB000A381266165614E44A5EB09052660A560C6
:104EC0003E46BE4200D93E4620683246414600F08A
:104ED000ABFAA3689B1BA3602368334423600020C4
:104EE000BDE8F0872A4600F0D7FA06460028E0D150
:104EF00021695046FFF7B8FE0C23CAF80030A38999
:104F000043F04003A3814FF0FF30E9E72DE9F04F74
:104F100098468B891B069DB007460D4614460ED554
:104F20000B6963B94021FFF70BFF2860286120B9A6
:104F30000C233B604FF0FF30D0E040236B61002337
:104F4000099320238DF82930CDF80C803023DFF829
:104F5000A4818DF82A304FF0010923469A4613F8B0
:104F6000012B0AB1252AF9D1BAEB040B0BD05B4611
:104F7000224629463846FFF76FFF013000F0A9802E
:104F8000099A5A4409929AF80030002B00F0A18047
:104F900000234FF0FF32CDE905230AF1010A049303
:104FA00007938DF853301A935446052214F8011BC9
:104FB0005048FBF71DF9049AD8B9D00644BF202306
:104FC0008DF85330110744BF2B238DF853309AF8D6
:104FD00000302A2B15D0079A544600204FF00A0CB7
:104FE000214611F8013B303B092B4DD9B0B1079256
:104FF00014E0A0EB080309FA03F313430493A24659
:10500000D2E7039B191D1B680391002BBBBF5B42BA
:1050100042F0020207930793B8BF049223782E2B25
:105020000CD163782A2B34D1039B1A1D1B68039281
:10503000002BB8BF4FF0FF3302340593DFF8C4A054
:10504000217803225046FBF7D3F838B1049BA0EB3C
:105050000A004022824013430134049314F8011BD8
:1050600025488DF828100622FBF7C2F8002838D012
:10507000224B1BBB039B073323F007030833039327
:10508000099B3344099368E70CFB02320C4601206C
:10509000A6E700230134059319464FF00A0C204679
:1050A00010F8012B303A092A03D9002BC6D00591FC
:1050B000C4E70CFB012104460123F0E703AB009396
:1050C0002A460F4B04A93846AFF30080421C06461F
:1050D000D6D1AB895B063FF52DAF09981DB0BDE871
:1050E000F08F03AB00932A46054B04A9384600F025
:1050F00079F8EBE7505500085A5500080000000009
:10510000594E0008565500082DE9F04716469946B5
:105110008A680B69DDF820809342B8BF134633607C
:1051200091F8432007460C460AB1013333602368E7
:10513000990642BF336802333360256815F00605CF
:1051400006D104F1190AE36832689B1AAB4226DCE7
:1051500094F84320131E226818BF012392062BD413
:1051600004F1430249463846C04701301ED0236847
:10517000226903F00603042B02BFE5683368ED1AC9
:10518000A3680CBF25EAE57500259342C4BF9B1AAE
:10519000ED1800261A34B5421AD1002008E0012388
:1051A000524649463846C047013003D14FF0FF30E0
:1051B000BDE8F0870135C6E7E1185A1C302081F8B8
:1051C0004300224494F8451082F843100233C7E7A5
:1051D0000123224649463846C0470130E6D0013611
:1051E000D9E700002DE9FF470F7E0C9D782F9146EF
:1051F00080460C469A4601F1430207D8622F0AD82E
:10520000002F00F0D480582F00F0C08004F1420538
:1052100084F842703AE0A7F16303152BF6D801A198
:1052200051F823F07D520008915200080D520008F9
:105230000D5200080D5200080D520008915200084E
:105240000D5200080D5200080D5200080D520008C2
:1052500095530008BD5200084F5300080D52000836
:105260000D520008B75300080D520008BD52000847
:105270000D5200080D520008575300082B681A1DE4
:105280001B682A6004F1420584F8423001239FE044
:1052900020682B68070603F10401296001D51E6808
:1052A00003E04606FBD5B3F90060002E03DA2D2398
:1052B000764284F843305A480A2312E02B6820686B
:1052C000191D2960050601D51E6802E04106FBD5BF
:1052D0001E8853486F2F0CBF08230A23002184F82F
:1052E00043106568A560002DA2BF216821F004016C
:1052F00021600EB9002D4BD01546B6FBF3F103FB30
:105300001167C75D05F8017D3746BB420E46F4D9EB
:10531000082B0BD12368DE0708D523696168994201
:10532000DEBF302305F8013C05F1FF35521B226139
:10533000CDF800A04B4603AA21464046FFF7E4FE05
:1053400001304AD14FF0FF3004B0BDE8F087236848
:1053500043F0200323603348782784F8457023689E
:1053600029681F0651F8046B02D45F0648BFB6B225
:10537000DF0748BF43F02003296048BF23601EB900
:10538000236823F0200323601023A7E72448E4E7E1
:105390001546BDE72B6826686169181D286035062B
:1053A0001B6801D5196002E07006FBD51980002347
:1053B00023611546BCE72B681A1D2A601D686268C8
:1053C00000212846FAF714FF08B1401B60606368AB
:1053D0002361002384F84330AAE723692A4649461B
:1053E0004046D0470130ADD023689B0713D4E06816
:1053F000039B9842B8BF1846A6E7012332464946A8
:105400004046D04701309DD00135E36803995B1ACF
:10541000AB42F2DCEBE7002504F11906F5E700BF2B
:105420006155000872550008884210B501EB02046E
:1054300002D98442234607D8431EA14208D011F85E
:10544000012B03F8012FF8E7024401468A4200D1FC
:1054500010BD13F8014D02F8014DF7E738B5064DC0
:105460000023044608462B60FBF7D8FE431C02D1FC
:105470002B6803B1236038BD0C0500200A4491421B
:1054800000F1FF3300D1704710B511F8014B03F85C
:10549000014F9142F9D110BD2DE9F04180461446EB
:1054A0000E4621B9BDE8F0411146FFF749BC2AB9C3
:1054B000FFF7DAFB25462846BDE8F08100F01BF82F
:1054C0008442074602D8B4EB500F12D8214640461A
:1054D000FFF736FC05460028EDD0BC422246314697
:1054E00028BF3A46FFF7CAFF31464046FFF7BCFBEC
:1054F000E1E73546DFE751F8043C181F002BBCBF3D
:105500000B58C01870470000F8B500BFF8BC08BCC5
:105510009E467047F8B500BFF8BC08BC9E46704771
:10552000616464725B253038785D203D20307825D9
:10553000303878200D0A0000000000000000000054
:105540000102030406070809000000000102030429
:10555000232D302B2000686C4C006566674546475C
:1055600000303132333435363738394142434445DF
:10557000460030313233343536373839616263644E
:04558000656600005C
:085584003CADFF7F01000000B7
:04558C00D50100083D
:04559000B10100085D
:105594000024F400100000000100000000000000DE
:1055A400D40300203C040020A404002000000000D8
:1055B40000000000000000000000000000000000E7
:1055C40000000000000000000000000000000000D7
:1055D40000000000000000000000000000000000C7
:0C55E40000000000000000000C0000208F
:04000005080012AD30
:00000001FF
